{
  "contractName": "DAO",
  "abi": [
    {
      "anonymous": false,
      "inputs": [
        {
          "indexed": false,
          "internalType": "string",
          "name": "message",
          "type": "string"
        }
      ],
      "name": "ProposalAccepted",
      "type": "event"
    },
    {
      "anonymous": false,
      "inputs": [
        {
          "indexed": true,
          "internalType": "uint256",
          "name": "proposalId",
          "type": "uint256"
        },
        {
          "indexed": false,
          "internalType": "string",
          "name": "description",
          "type": "string"
        }
      ],
      "name": "ProposalCreated",
      "type": "event"
    },
    {
      "anonymous": false,
      "inputs": [
        {
          "indexed": false,
          "internalType": "string",
          "name": "message",
          "type": "string"
        }
      ],
      "name": "ProposalRejected",
      "type": "event"
    },
    {
      "anonymous": false,
      "inputs": [
        {
          "indexed": true,
          "internalType": "uint256",
          "name": "proposalId",
          "type": "uint256"
        },
        {
          "indexed": true,
          "internalType": "address",
          "name": "voter",
          "type": "address"
        },
        {
          "indexed": false,
          "internalType": "uint256",
          "name": "tokenAmount",
          "type": "uint256"
        }
      ],
      "name": "Voted",
      "type": "event"
    },
    {
      "inputs": [
        {
          "internalType": "address",
          "name": "",
          "type": "address"
        }
      ],
      "name": "balances",
      "outputs": [
        {
          "internalType": "uint256",
          "name": "",
          "type": "uint256"
        }
      ],
      "stateMutability": "view",
      "type": "function",
      "constant": true
    },
    {
      "inputs": [
        {
          "internalType": "address",
          "name": "",
          "type": "address"
        }
      ],
      "name": "members",
      "outputs": [
        {
          "internalType": "address",
          "name": "memberAddress",
          "type": "address"
        },
        {
          "internalType": "uint256",
          "name": "startTime",
          "type": "uint256"
        },
        {
          "internalType": "uint256",
          "name": "tokenBalance",
          "type": "uint256"
        }
      ],
      "stateMutability": "view",
      "type": "function",
      "constant": true
    },
    {
      "inputs": [
        {
          "internalType": "uint256",
          "name": "",
          "type": "uint256"
        }
      ],
      "name": "proposals",
      "outputs": [
        {
          "internalType": "string",
          "name": "description",
          "type": "string"
        },
        {
          "internalType": "uint256",
          "name": "voteCount",
          "type": "uint256"
        },
        {
          "internalType": "bool",
          "name": "executed",
          "type": "bool"
        }
      ],
      "stateMutability": "view",
      "type": "function",
      "constant": true
    },
    {
      "inputs": [],
      "name": "totalSupply",
      "outputs": [
        {
          "internalType": "uint256",
          "name": "",
          "type": "uint256"
        }
      ],
      "stateMutability": "view",
      "type": "function",
      "constant": true
    },
    {
      "inputs": [
        {
          "internalType": "address",
          "name": "",
          "type": "address"
        },
        {
          "internalType": "uint256",
          "name": "",
          "type": "uint256"
        }
      ],
      "name": "votes",
      "outputs": [
        {
          "internalType": "bool",
          "name": "",
          "type": "bool"
        }
      ],
      "stateMutability": "view",
      "type": "function",
      "constant": true
    },
    {
      "inputs": [
        {
          "internalType": "address",
          "name": "_member",
          "type": "address"
        }
      ],
      "name": "addMember",
      "outputs": [],
      "stateMutability": "nonpayable",
      "type": "function"
    },
    {
      "inputs": [
        {
          "internalType": "address",
          "name": "_member",
          "type": "address"
        }
      ],
      "name": "removeMember",
      "outputs": [],
      "stateMutability": "nonpayable",
      "type": "function"
    },
    {
      "inputs": [
        {
          "internalType": "string",
          "name": "_description",
          "type": "string"
        }
      ],
      "name": "createProposal",
      "outputs": [],
      "stateMutability": "nonpayable",
      "type": "function"
    },
    {
      "inputs": [
        {
          "internalType": "uint256",
          "name": "_proposalId",
          "type": "uint256"
        },
        {
          "internalType": "uint256",
          "name": "_tokenAmount",
          "type": "uint256"
        }
      ],
      "name": "vote",
      "outputs": [],
      "stateMutability": "nonpayable",
      "type": "function"
    },
    {
      "inputs": [
        {
          "internalType": "uint256",
          "name": "_proposalId",
          "type": "uint256"
        }
      ],
      "name": "executeProposal",
      "outputs": [],
      "stateMutability": "nonpayable",
      "type": "function"
    }
  ],
  "bytecode": "0x608060405234801561000f575f80fd5b506118c98061001d5f395ff3fe608060405234801561000f575f80fd5b506004361061009c575f3560e01c806327e235e31161006457806327e235e31461015a57806349c2a1a61461018a5780639f2524ee146101a6578063b384abef146101d6578063ca6d56dc146101f25761009c565b8063013cf08b146100a057806308ae4b0c146100d25780630b1ca49a146101045780630d61b5191461012057806318160ddd1461013c575b5f80fd5b6100ba60048036038101906100b59190610d08565b61020e565b6040516100c993929190610de6565b60405180910390f35b6100ec60048036038101906100e79190610e7c565b6102d4565b6040516100fb93929190610eb6565b60405180910390f35b61011e60048036038101906101199190610e7c565b610319565b005b61013a60048036038101906101359190610d08565b6104f3565b005b61014461063f565b6040516101519190610eeb565b60405180910390f35b610174600480360381019061016f9190610e7c565b610645565b6040516101819190610eeb565b60405180910390f35b6101a4600480360381019061019f9190611030565b61065a565b005b6101c060048036038101906101bb9190611077565b610728565b6040516101cd91906110b5565b60405180910390f35b6101f060048036038101906101eb91906110ce565b610752565b005b61020c60048036038101906102079190610e7c565b610acf565b005b5f818154811061021c575f80fd5b905f5260205f2090600302015f91509050805f01805461023b90611139565b80601f016020809104026020016040519081016040528092919081815260200182805461026790611139565b80156102b25780601f10610289576101008083540402835291602001916102b2565b820191905f5260205f20905b81548152906001019060200180831161029557829003601f168201915b505050505090806001015490806002015f9054906101000a900460ff16905083565b6001602052805f5260405f205f91509050805f015f9054906101000a900473ffffffffffffffffffffffffffffffffffffffff16908060010154908060020154905083565b5f73ffffffffffffffffffffffffffffffffffffffff1660015f8373ffffffffffffffffffffffffffffffffffffffff1673ffffffffffffffffffffffffffffffffffffffff1681526020019081526020015f205f015f9054906101000a900473ffffffffffffffffffffffffffffffffffffffff1673ffffffffffffffffffffffffffffffffffffffff16036103e5576040517f08c379a00000000000000000000000000000000000000000000000000000000081526004016103dc906111b3565b60405180910390fd5b60015f8273ffffffffffffffffffffffffffffffffffffffff1673ffffffffffffffffffffffffffffffffffffffff1681526020019081526020015f206002015460045f82825461043691906111fe565b9250508190555060015f8273ffffffffffffffffffffffffffffffffffffffff1673ffffffffffffffffffffffffffffffffffffffff1681526020019081526020015f205f8082015f6101000a81549073ffffffffffffffffffffffffffffffffffffffff0219169055600182015f9055600282015f9055505060025f8273ffffffffffffffffffffffffffffffffffffffff1673ffffffffffffffffffffffffffffffffffffffff1681526020019081526020015f205f905550565b5f80828154811061050757610506611231565b5b905f5260205f2090600302019050806002015f9054906101000a900460ff1615610566576040517f08c379a000000000000000000000000000000000000000000000000000000000815260040161055d906112a8565b60405180910390fd5b5f6004546064836001015461057b91906112c6565b6105859190611334565b905060328111156106045760015f84815481106105a5576105a4611231565b5b905f5260205f2090600302016002015f6101000a81548160ff0219169083151502179055507f19cf08368c3c86aacb1be12c902a304c3b1d64e4f72e1aa33789a01f68ecab056040516105f7906113ae565b60405180910390a161063a565b7f276f61830e554c29810d2d21d6523c691bef4a9634206a55fee98c24e62c9a0560405161063190611416565b60405180910390a15b505050565b60045481565b6002602052805f5260405f205f915090505481565b5f60405180606001604052808381526020015f81526020015f1515815250908060018154018082558091505060019003905f5260205f2090600302015f909190919091505f820151815f0190816106b191906115d1565b50602082015181600101556040820151816002015f6101000a81548160ff021916908315150217905550505060015f805490506106ee91906111fe565b7f9c770c289ab5bf7e57cb1d23c8ceae993aea46eb64847072fd3d78ca60d3e4328260405161071d91906116a0565b60405180910390a250565b6003602052815f5260405f20602052805f5260405f205f915091509054906101000a900460ff1681565b5f73ffffffffffffffffffffffffffffffffffffffff1660015f3373ffffffffffffffffffffffffffffffffffffffff1673ffffffffffffffffffffffffffffffffffffffff1681526020019081526020015f205f015f9054906101000a900473ffffffffffffffffffffffffffffffffffffffff1673ffffffffffffffffffffffffffffffffffffffff160361081e576040517f08c379a00000000000000000000000000000000000000000000000000000000081526004016108159061170a565b60405180910390fd5b8060025f3373ffffffffffffffffffffffffffffffffffffffff1673ffffffffffffffffffffffffffffffffffffffff1681526020019081526020015f2054101561089e576040517f08c379a000000000000000000000000000000000000000000000000000000000815260040161089590611772565b60405180910390fd5b60035f3373ffffffffffffffffffffffffffffffffffffffff1673ffffffffffffffffffffffffffffffffffffffff1681526020019081526020015f205f8381526020019081526020015f205f9054906101000a900460ff1615610937576040517f08c379a000000000000000000000000000000000000000000000000000000000815260040161092e906117da565b60405180910390fd5b600160035f3373ffffffffffffffffffffffffffffffffffffffff1673ffffffffffffffffffffffffffffffffffffffff1681526020019081526020015f205f8481526020019081526020015f205f6101000a81548160ff0219169083151502179055508060015f3373ffffffffffffffffffffffffffffffffffffffff1673ffffffffffffffffffffffffffffffffffffffff1681526020019081526020015f206002015f8282546109ea91906111fe565b925050819055508060025f3373ffffffffffffffffffffffffffffffffffffffff1673ffffffffffffffffffffffffffffffffffffffff1681526020019081526020015f205f828254610a3d91906111fe565b92505081905550805f8381548110610a5857610a57611231565b5b905f5260205f2090600302016001015f828254610a7591906117f8565b925050819055503373ffffffffffffffffffffffffffffffffffffffff16827f1abe610cf2bf87e57dcc1181fcf5ac0934e843d8344ab9eed6e86c799f62585e83604051610ac39190610eeb565b60405180910390a35050565b5f73ffffffffffffffffffffffffffffffffffffffff1660015f8373ffffffffffffffffffffffffffffffffffffffff1673ffffffffffffffffffffffffffffffffffffffff1681526020019081526020015f205f015f9054906101000a900473ffffffffffffffffffffffffffffffffffffffff1673ffffffffffffffffffffffffffffffffffffffff1614610b9b576040517f08c379a0000000000000000000000000000000000000000000000000000000008152600401610b9290611875565b60405180910390fd5b60405180606001604052808273ffffffffffffffffffffffffffffffffffffffff168152602001428152602001606481525060015f8373ffffffffffffffffffffffffffffffffffffffff1673ffffffffffffffffffffffffffffffffffffffff1681526020019081526020015f205f820151815f015f6101000a81548173ffffffffffffffffffffffffffffffffffffffff021916908373ffffffffffffffffffffffffffffffffffffffff1602179055506020820151816001015560408201518160020155905050606460025f8373ffffffffffffffffffffffffffffffffffffffff1673ffffffffffffffffffffffffffffffffffffffff1681526020019081526020015f2081905550606460045f828254610cba91906117f8565b9250508190555050565b5f604051905090565b5f80fd5b5f80fd5b5f819050919050565b610ce781610cd5565b8114610cf1575f80fd5b50565b5f81359050610d0281610cde565b92915050565b5f60208284031215610d1d57610d1c610ccd565b5b5f610d2a84828501610cf4565b91505092915050565b5f81519050919050565b5f82825260208201905092915050565b5f5b83811015610d6a578082015181840152602081019050610d4f565b5f8484015250505050565b5f601f19601f8301169050919050565b5f610d8f82610d33565b610d998185610d3d565b9350610da9818560208601610d4d565b610db281610d75565b840191505092915050565b610dc681610cd5565b82525050565b5f8115159050919050565b610de081610dcc565b82525050565b5f6060820190508181035f830152610dfe8186610d85565b9050610e0d6020830185610dbd565b610e1a6040830184610dd7565b949350505050565b5f73ffffffffffffffffffffffffffffffffffffffff82169050919050565b5f610e4b82610e22565b9050919050565b610e5b81610e41565b8114610e65575f80fd5b50565b5f81359050610e7681610e52565b92915050565b5f60208284031215610e9157610e90610ccd565b5b5f610e9e84828501610e68565b91505092915050565b610eb081610e41565b82525050565b5f606082019050610ec95f830186610ea7565b610ed66020830185610dbd565b610ee36040830184610dbd565b949350505050565b5f602082019050610efe5f830184610dbd565b92915050565b5f80fd5b5f80fd5b7f4e487b71000000000000000000000000000000000000000000000000000000005f52604160045260245ffd5b610f4282610d75565b810181811067ffffffffffffffff82111715610f6157610f60610f0c565b5b80604052505050565b5f610f73610cc4565b9050610f7f8282610f39565b919050565b5f67ffffffffffffffff821115610f9e57610f9d610f0c565b5b610fa782610d75565b9050602081019050919050565b828183375f83830152505050565b5f610fd4610fcf84610f84565b610f6a565b905082815260208101848484011115610ff057610fef610f08565b5b610ffb848285610fb4565b509392505050565b5f82601f83011261101757611016610f04565b5b8135611027848260208601610fc2565b91505092915050565b5f6020828403121561104557611044610ccd565b5b5f82013567ffffffffffffffff81111561106257611061610cd1565b5b61106e84828501611003565b91505092915050565b5f806040838503121561108d5761108c610ccd565b5b5f61109a85828601610e68565b92505060206110ab85828601610cf4565b9150509250929050565b5f6020820190506110c85f830184610dd7565b92915050565b5f80604083850312156110e4576110e3610ccd565b5b5f6110f185828601610cf4565b925050602061110285828601610cf4565b9150509250929050565b7f4e487b71000000000000000000000000000000000000000000000000000000005f52602260045260245ffd5b5f600282049050600182168061115057607f821691505b6020821081036111635761116261110c565b5b50919050565b7f4d656d62657220646f6573206e6f7420657869737400000000000000000000005f82015250565b5f61119d601583610d3d565b91506111a882611169565b602082019050919050565b5f6020820190508181035f8301526111ca81611191565b9050919050565b7f4e487b71000000000000000000000000000000000000000000000000000000005f52601160045260245ffd5b5f61120882610cd5565b915061121383610cd5565b925082820390508181111561122b5761122a6111d1565b5b92915050565b7f4e487b71000000000000000000000000000000000000000000000000000000005f52603260045260245ffd5b7f50726f706f73616c20616c7265616479206578656375746564000000000000005f82015250565b5f611292601983610d3d565b915061129d8261125e565b602082019050919050565b5f6020820190508181035f8301526112bf81611286565b9050919050565b5f6112d082610cd5565b91506112db83610cd5565b92508282026112e981610cd5565b91508282048414831517611300576112ff6111d1565b5b5092915050565b7f4e487b71000000000000000000000000000000000000000000000000000000005f52601260045260245ffd5b5f61133e82610cd5565b915061134983610cd5565b92508261135957611358611307565b5b828204905092915050565b7f53756363657373000000000000000000000000000000000000000000000000005f82015250565b5f611398600783610d3d565b91506113a382611364565b602082019050919050565b5f6020820190508181035f8301526113c58161138c565b9050919050565b7f4661696c000000000000000000000000000000000000000000000000000000005f82015250565b5f611400600483610d3d565b915061140b826113cc565b602082019050919050565b5f6020820190508181035f83015261142d816113f4565b9050919050565b5f819050815f5260205f209050919050565b5f6020601f8301049050919050565b5f82821b905092915050565b5f600883026114907fffffffffffffffffffffffffffffffffffffffffffffffffffffffffffffffff82611455565b61149a8683611455565b95508019841693508086168417925050509392505050565b5f819050919050565b5f6114d56114d06114cb84610cd5565b6114b2565b610cd5565b9050919050565b5f819050919050565b6114ee836114bb565b6115026114fa826114dc565b848454611461565b825550505050565b5f90565b61151661150a565b6115218184846114e5565b505050565b5b81811015611544576115395f8261150e565b600181019050611527565b5050565b601f8211156115895761155a81611434565b61156384611446565b81016020851015611572578190505b61158661157e85611446565b830182611526565b50505b505050565b5f82821c905092915050565b5f6115a95f198460080261158e565b1980831691505092915050565b5f6115c1838361159a565b9150826002028217905092915050565b6115da82610d33565b67ffffffffffffffff8111156115f3576115f2610f0c565b5b6115fd8254611139565b611608828285611548565b5f60209050601f831160018114611639575f8415611627578287015190505b61163185826115b6565b865550611698565b601f19841661164786611434565b5f5b8281101561166e57848901518255600182019150602085019450602081019050611649565b8683101561168b5784890151611687601f89168261159a565b8355505b6001600288020188555050505b505050505050565b5f6020820190508181035f8301526116b88184610d85565b905092915050565b7f4e6f742061206d656d62657200000000000000000000000000000000000000005f82015250565b5f6116f4600c83610d3d565b91506116ff826116c0565b602082019050919050565b5f6020820190508181035f830152611721816116e8565b9050919050565b7f4e6f7420656e6f75676820746f6b656e7320746f20766f7465000000000000005f82015250565b5f61175c601983610d3d565b915061176782611728565b602082019050919050565b5f6020820190508181035f83015261178981611750565b9050919050565b7f416c726561647920766f746564000000000000000000000000000000000000005f82015250565b5f6117c4600d83610d3d565b91506117cf82611790565b602082019050919050565b5f6020820190508181035f8301526117f1816117b8565b9050919050565b5f61180282610cd5565b915061180d83610cd5565b9250828201905080821115611825576118246111d1565b5b92915050565b7f4d656d62657220616c72656164792065786973747300000000000000000000005f82015250565b5f61185f601583610d3d565b915061186a8261182b565b602082019050919050565b5f6020820190508181035f83015261188c81611853565b905091905056fea2646970667358221220237afc39de8c6a9d15f0406af655b9347ff1648e650162b464852a9a96ec16f164736f6c63430008180033",
  "immutableReferences": {},
  "source": "// SPDX-License-Identifier: MIT\r\npragma solidity ^0.8.19;\r\n\r\ncontract DAO {\r\n    struct Proposal {\r\n        string description;\r\n        uint voteCount;\r\n        bool executed;\r\n    }\r\n\r\n    struct Member {\r\n        address memberAddress;\r\n        uint startTime;\r\n        uint tokenBalance;\r\n    }\r\n\r\n    Proposal[] public proposals;\r\n    mapping(address => Member) public members;\r\n    mapping(address => uint) public balances;\r\n    mapping(address => mapping(uint => bool)) public votes; // Track if a member voted on a proposal\r\n    uint public totalSupply;\r\n\r\n    event ProposalCreated(uint indexed proposalId, string description);\r\n    event Voted(\r\n        uint indexed proposalId,\r\n        address indexed voter,\r\n        uint tokenAmount\r\n    );\r\n    event ProposalAccepted(string message);\r\n    event ProposalRejected(string message);\r\n\r\n    function addMember(address _member) public {\r\n        require(\r\n            members[_member].memberAddress == address(0),\r\n            \"Member already exists\"\r\n        );\r\n        members[_member] = Member(_member, block.timestamp, 100);\r\n        balances[_member] = 100;\r\n        totalSupply += 100;\r\n    }\r\n\r\n    function removeMember(address _member) public {\r\n        require(\r\n            members[_member].memberAddress != address(0),\r\n            \"Member does not exist\"\r\n        );\r\n        totalSupply -= members[_member].tokenBalance;\r\n        delete members[_member];\r\n        delete balances[_member];\r\n    }\r\n\r\n    function createProposal(string memory _description) public {\r\n        proposals.push(Proposal(_description, 0, false));\r\n        emit ProposalCreated(proposals.length - 1, _description);\r\n    }\r\n\r\n    function vote(uint _proposalId, uint _tokenAmount) public {\r\n        require(\r\n            members[msg.sender].memberAddress != address(0),\r\n            \"Not a member\"\r\n        );\r\n        require(\r\n            balances[msg.sender] >= _tokenAmount,\r\n            \"Not enough tokens to vote\"\r\n        );\r\n        require(!votes[msg.sender][_proposalId], \"Already voted\");\r\n        votes[msg.sender][_proposalId] = true;\r\n        members[msg.sender].tokenBalance -= _tokenAmount;\r\n        balances[msg.sender] -= _tokenAmount;\r\n        proposals[_proposalId].voteCount += _tokenAmount;\r\n        emit Voted(_proposalId, msg.sender, _tokenAmount);\r\n    }\r\n\r\n    function executeProposal(uint _proposalId) public {\r\n        Proposal storage proposal = proposals[_proposalId];\r\n        require(!proposal.executed, \"Proposal already executed\");\r\n\r\n        uint votePercentage = (proposal.voteCount * 100) / totalSupply;\r\n        if (votePercentage > 50) {\r\n            proposals[_proposalId].executed = true;\r\n            emit ProposalAccepted(\"Success\");\r\n        } else {\r\n            emit ProposalRejected(\"Fail\");\r\n        }\r\n    }\r\n}\r\n",
  "sourcePath": "C:\\Programming\\blockchain\\assignment3\\contracts\\DAO.sol",
  "compiler": {
    "name": "solc",
    "version": "0.8.24+commit.e11b9ed9.Emscripten.clang"
  },
  "schemaVersion": "3.4.16",
  "updatedAt": "2024-02-20T17:18:30.115Z",
  "networkType": "ethereum",
  "devdoc": {
    "kind": "dev",
    "methods": {},
    "version": 1
  },
  "userdoc": {
    "kind": "user",
    "methods": {},
    "version": 1
  }
}